{
  "contractName": "IdleConnector",
  "abi": [
    {
      "inputs": [
        {
          "internalType": "uint256[]",
          "name": "inital",
          "type": "uint256[]"
        }
      ],
      "stateMutability": "nonpayable",
      "type": "constructor"
    },
    {
      "anonymous": false,
      "inputs": [
        {
          "indexed": true,
          "internalType": "address",
          "name": "previousOwner",
          "type": "address"
        },
        {
          "indexed": true,
          "internalType": "address",
          "name": "newOwner",
          "type": "address"
        }
      ],
      "name": "OwnershipTransferred",
      "type": "event"
    },
    {
      "inputs": [],
      "name": "owner",
      "outputs": [
        {
          "internalType": "address",
          "name": "",
          "type": "address"
        }
      ],
      "stateMutability": "view",
      "type": "function"
    },
    {
      "inputs": [],
      "name": "renounceOwnership",
      "outputs": [],
      "stateMutability": "nonpayable",
      "type": "function"
    },
    {
      "inputs": [
        {
          "internalType": "address",
          "name": "newOwner",
          "type": "address"
        }
      ],
      "name": "transferOwnership",
      "outputs": [],
      "stateMutability": "nonpayable",
      "type": "function"
    },
    {
      "inputs": [
        {
          "internalType": "uint256[]",
          "name": "newratios",
          "type": "uint256[]"
        }
      ],
      "name": "updateRatio",
      "outputs": [],
      "stateMutability": "nonpayable",
      "type": "function"
    },
    {
      "inputs": [],
      "name": "deposit",
      "outputs": [],
      "stateMutability": "payable",
      "type": "function"
    },
    {
      "inputs": [
        {
          "internalType": "contract IERC20",
          "name": "token",
          "type": "address"
        },
        {
          "internalType": "uint256",
          "name": "_tokens",
          "type": "uint256"
        }
      ],
      "name": "withdraw",
      "outputs": [],
      "stateMutability": "nonpayable",
      "type": "function"
    }
  ],
  "bytecode": "0x6080604052736b175474e89094c44da98b954eedeac495271d0f600260006101000a81548173ffffffffffffffffffffffffffffffffffffffff021916908373ffffffffffffffffffffffffffffffffffffffff16021790555073c02aaa39b223fe8d0a0e5c4f27ead9083c756cc2600360006101000a81548173ffffffffffffffffffffffffffffffffffffffff021916908373ffffffffffffffffffffffffffffffffffffffff16021790555073a0b86991c6218b36c1d19d4a2e9eb0ce3606eb48600460006101000a81548173ffffffffffffffffffffffffffffffffffffffff021916908373ffffffffffffffffffffffffffffffffffffffff16021790555073dac17f958d2ee523a2206206994597c13d831ec7600560006101000a81548173ffffffffffffffffffffffffffffffffffffffff021916908373ffffffffffffffffffffffffffffffffffffffff160217905550732260fac5e5542a773aa44fbcfedf7c193bc2c599600660006101000a81548173ffffffffffffffffffffffffffffffffffffffff021916908373ffffffffffffffffffffffffffffffffffffffff160217905550600260009054906101000a900473ffffffffffffffffffffffffffffffffffffffff16600760006101000a81548173ffffffffffffffffffffffffffffffffffffffff021916908373ffffffffffffffffffffffffffffffffffffffff160217905550600360009054906101000a900473ffffffffffffffffffffffffffffffffffffffff16600860006101000a81548173ffffffffffffffffffffffffffffffffffffffff021916908373ffffffffffffffffffffffffffffffffffffffff160217905550600460009054906101000a900473ffffffffffffffffffffffffffffffffffffffff16600960006101000a81548173ffffffffffffffffffffffffffffffffffffffff021916908373ffffffffffffffffffffffffffffffffffffffff160217905550600560009054906101000a900473ffffffffffffffffffffffffffffffffffffffff16600a60006101000a81548173ffffffffffffffffffffffffffffffffffffffff021916908373ffffffffffffffffffffffffffffffffffffffff160217905550600660009054906101000a900473ffffffffffffffffffffffffffffffffffffffff16600b60006101000a81548173ffffffffffffffffffffffffffffffffffffffff021916908373ffffffffffffffffffffffffffffffffffffffff1602179055506040518060a00160405280600760009054906101000a900473ffffffffffffffffffffffffffffffffffffffff1673ffffffffffffffffffffffffffffffffffffffff1673ffffffffffffffffffffffffffffffffffffffff168152602001600860009054906101000a900473ffffffffffffffffffffffffffffffffffffffff1673ffffffffffffffffffffffffffffffffffffffff1673ffffffffffffffffffffffffffffffffffffffff168152602001600960009054906101000a900473ffffffffffffffffffffffffffffffffffffffff1673ffffffffffffffffffffffffffffffffffffffff1673ffffffffffffffffffffffffffffffffffffffff168152602001600a60009054906101000a900473ffffffffffffffffffffffffffffffffffffffff1673ffffffffffffffffffffffffffffffffffffffff1673ffffffffffffffffffffffffffffffffffffffff168152602001600b60009054906101000a900473ffffffffffffffffffffffffffffffffffffffff1673ffffffffffffffffffffffffffffffffffffffff1673ffffffffffffffffffffffffffffffffffffffff16815250600c9060056200055b92919062000e8b565b506040518060a00160405280600d60009054906101000a900473ffffffffffffffffffffffffffffffffffffffff1673ffffffffffffffffffffffffffffffffffffffff1673ffffffffffffffffffffffffffffffffffffffff168152602001600e60009054906101000a900473ffffffffffffffffffffffffffffffffffffffff1673ffffffffffffffffffffffffffffffffffffffff1673ffffffffffffffffffffffffffffffffffffffff168152602001600f60009054906101000a900473ffffffffffffffffffffffffffffffffffffffff1673ffffffffffffffffffffffffffffffffffffffff1673ffffffffffffffffffffffffffffffffffffffff168152602001601060009054906101000a900473ffffffffffffffffffffffffffffffffffffffff1673ffffffffffffffffffffffffffffffffffffffff1673ffffffffffffffffffffffffffffffffffffffff168152602001601160009054906101000a900473ffffffffffffffffffffffffffffffffffffffff1673ffffffffffffffffffffffffffffffffffffffff1673ffffffffffffffffffffffffffffffffffffffff1681525060129060056200071b92919062000f1a565b50600d60009054906101000a900473ffffffffffffffffffffffffffffffffffffffff16601760006101000a81548173ffffffffffffffffffffffffffffffffffffffff021916908373ffffffffffffffffffffffffffffffffffffffff160217905550600e60009054906101000a900473ffffffffffffffffffffffffffffffffffffffff16601860006101000a81548173ffffffffffffffffffffffffffffffffffffffff021916908373ffffffffffffffffffffffffffffffffffffffff160217905550600f60009054906101000a900473ffffffffffffffffffffffffffffffffffffffff16601960006101000a81548173ffffffffffffffffffffffffffffffffffffffff021916908373ffffffffffffffffffffffffffffffffffffffff160217905550601060009054906101000a900473ffffffffffffffffffffffffffffffffffffffff16601a60006101000a81548173ffffffffffffffffffffffffffffffffffffffff021916908373ffffffffffffffffffffffffffffffffffffffff160217905550601160009054906101000a900473ffffffffffffffffffffffffffffffffffffffff16601b60006101000a81548173ffffffffffffffffffffffffffffffffffffffff021916908373ffffffffffffffffffffffffffffffffffffffff1602179055506040518060a00160405280601760009054906101000a900473ffffffffffffffffffffffffffffffffffffffff1673ffffffffffffffffffffffffffffffffffffffff1673ffffffffffffffffffffffffffffffffffffffff168152602001601860009054906101000a900473ffffffffffffffffffffffffffffffffffffffff1673ffffffffffffffffffffffffffffffffffffffff1673ffffffffffffffffffffffffffffffffffffffff168152602001601960009054906101000a900473ffffffffffffffffffffffffffffffffffffffff1673ffffffffffffffffffffffffffffffffffffffff1673ffffffffffffffffffffffffffffffffffffffff168152602001601a60009054906101000a900473ffffffffffffffffffffffffffffffffffffffff1673ffffffffffffffffffffffffffffffffffffffff1673ffffffffffffffffffffffffffffffffffffffff168152602001601b60009054906101000a900473ffffffffffffffffffffffffffffffffffffffff1673ffffffffffffffffffffffffffffffffffffffff1673ffffffffffffffffffffffffffffffffffffffff16815250601c90600562000aca92919062000fa9565b5034801562000ad857600080fd5b506040516200202138038062002021833981810160405281019062000afe91906200111c565b62000b1e62000b1262000dbf60201b60201c565b62000dc760201b60201c565b8060008151811062000b355762000b3462001205565b5b602002602001015160136000600d60009054906101000a900473ffffffffffffffffffffffffffffffffffffffff1673ffffffffffffffffffffffffffffffffffffffff1673ffffffffffffffffffffffffffffffffffffffff168152602001908152602001600020819055508060018151811062000bb95762000bb862001205565b5b602002602001015160136000600e60009054906101000a900473ffffffffffffffffffffffffffffffffffffffff1673ffffffffffffffffffffffffffffffffffffffff1673ffffffffffffffffffffffffffffffffffffffff168152602001908152602001600020819055508060028151811062000c3d5762000c3c62001205565b5b602002602001015160136000600f60009054906101000a900473ffffffffffffffffffffffffffffffffffffffff1673ffffffffffffffffffffffffffffffffffffffff1673ffffffffffffffffffffffffffffffffffffffff168152602001908152602001600020819055508060038151811062000cc15762000cc062001205565b5b602002602001015160136000601060009054906101000a900473ffffffffffffffffffffffffffffffffffffffff1673ffffffffffffffffffffffffffffffffffffffff1673ffffffffffffffffffffffffffffffffffffffff168152602001908152602001600020819055508060048151811062000d455762000d4462001205565b5b602002602001015160136000601160009054906101000a900473ffffffffffffffffffffffffffffffffffffffff1673ffffffffffffffffffffffffffffffffffffffff1673ffffffffffffffffffffffffffffffffffffffff1681526020019081526020016000208190555060003390505050620012a2565b600033905090565b60008060009054906101000a900473ffffffffffffffffffffffffffffffffffffffff169050816000806101000a81548173ffffffffffffffffffffffffffffffffffffffff021916908373ffffffffffffffffffffffffffffffffffffffff1602179055508173ffffffffffffffffffffffffffffffffffffffff168173ffffffffffffffffffffffffffffffffffffffff167f8be0079c531659141344cd1fd0a4f28419497f9722a3daafe3b4186f6b6457e060405160405180910390a35050565b82805482825590600052602060002090810192821562000f07579160200282015b8281111562000f065782518260006101000a81548173ffffffffffffffffffffffffffffffffffffffff021916908373ffffffffffffffffffffffffffffffffffffffff1602179055509160200191906001019062000eac565b5b50905062000f16919062001038565b5090565b82805482825590600052602060002090810192821562000f96579160200282015b8281111562000f955782518260006101000a81548173ffffffffffffffffffffffffffffffffffffffff021916908373ffffffffffffffffffffffffffffffffffffffff1602179055509160200191906001019062000f3b565b5b50905062000fa5919062001038565b5090565b82805482825590600052602060002090810192821562001025579160200282015b82811115620010245782518260006101000a81548173ffffffffffffffffffffffffffffffffffffffff021916908373ffffffffffffffffffffffffffffffffffffffff1602179055509160200191906001019062000fca565b5b50905062001034919062001038565b5090565b5b808211156200105357600081600090555060010162001039565b5090565b60006200106e620010688462001196565b6200116d565b9050808382526020820190508285602086028201111562001094576200109362001268565b5b60005b85811015620010c85781620010ad888262001105565b84526020840193506020830192505060018101905062001097565b5050509392505050565b600082601f830112620010ea57620010e962001263565b5b8151620010fc84826020860162001057565b91505092915050565b600081519050620011168162001288565b92915050565b60006020828403121562001135576200113462001272565b5b600082015167ffffffffffffffff8111156200115657620011556200126d565b5b6200116484828501620010d2565b91505092915050565b6000620011796200118c565b9050620011878282620011cf565b919050565b6000604051905090565b600067ffffffffffffffff821115620011b457620011b362001234565b5b602082029050602081019050919050565b6000819050919050565b620011da8262001277565b810181811067ffffffffffffffff82111715620011fc57620011fb62001234565b5b80604052505050565b7f4e487b7100000000000000000000000000000000000000000000000000000000600052603260045260246000fd5b7f4e487b7100000000000000000000000000000000000000000000000000000000600052604160045260246000fd5b600080fd5b600080fd5b600080fd5b600080fd5b6000601f19601f8301169050919050565b6200129381620011c5565b81146200129f57600080fd5b50565b610d6f80620012b26000396000f3fe6080604052600436106100555760003560e01c8063715018a61461005a5780638da5cb5b14610071578063a96c21571461009c578063d0e30db0146100c5578063f2fde38b146100cf578063f3fef3a3146100f8575b600080fd5b34801561006657600080fd5b5061006f610121565b005b34801561007d57600080fd5b506100866101a9565b6040516100939190610a71565b60405180910390f35b3480156100a857600080fd5b506100c360048036038101906100be9190610957565b6101d2565b005b6100cd6104d6565b005b3480156100db57600080fd5b506100f660048036038101906100f1919061092a565b6104d8565b005b34801561010457600080fd5b5061011f600480360381019061011a91906109cd565b6105d0565b005b61012961076c565b73ffffffffffffffffffffffffffffffffffffffff166101476101a9565b73ffffffffffffffffffffffffffffffffffffffff161461019d576040517f08c379a000000000000000000000000000000000000000000000000000000000815260040161019490610ad5565b60405180910390fd5b6101a76000610774565b565b60008060009054906101000a900473ffffffffffffffffffffffffffffffffffffffff16905090565b6101da61076c565b73ffffffffffffffffffffffffffffffffffffffff166101f86101a9565b73ffffffffffffffffffffffffffffffffffffffff161461024e576040517f08c379a000000000000000000000000000000000000000000000000000000000815260040161024590610ad5565b60405180910390fd5b8060008151811061026257610261610be2565b5b602002602001015160136000600d60009054906101000a900473ffffffffffffffffffffffffffffffffffffffff1673ffffffffffffffffffffffffffffffffffffffff1673ffffffffffffffffffffffffffffffffffffffff16815260200190815260200160002081905550806001815181106102e3576102e2610be2565b5b602002602001015160136000600e60009054906101000a900473ffffffffffffffffffffffffffffffffffffffff1673ffffffffffffffffffffffffffffffffffffffff1673ffffffffffffffffffffffffffffffffffffffff168152602001908152602001600020819055508060028151811061036457610363610be2565b5b602002602001015160136000600f60009054906101000a900473ffffffffffffffffffffffffffffffffffffffff1673ffffffffffffffffffffffffffffffffffffffff1673ffffffffffffffffffffffffffffffffffffffff16815260200190815260200160002081905550806003815181106103e5576103e4610be2565b5b602002602001015160136000601060009054906101000a900473ffffffffffffffffffffffffffffffffffffffff1673ffffffffffffffffffffffffffffffffffffffff1673ffffffffffffffffffffffffffffffffffffffff168152602001908152602001600020819055508060048151811061046657610465610be2565b5b602002602001015160136000601160009054906101000a900473ffffffffffffffffffffffffffffffffffffffff1673ffffffffffffffffffffffffffffffffffffffff1673ffffffffffffffffffffffffffffffffffffffff1681526020019081526020016000208190555050565b565b6104e061076c565b73ffffffffffffffffffffffffffffffffffffffff166104fe6101a9565b73ffffffffffffffffffffffffffffffffffffffff1614610554576040517f08c379a000000000000000000000000000000000000000000000000000000000815260040161054b90610ad5565b60405180910390fd5b600073ffffffffffffffffffffffffffffffffffffffff168173ffffffffffffffffffffffffffffffffffffffff1614156105c4576040517f08c379a00000000000000000000000000000000000000000000000000000000081526004016105bb90610ab5565b60405180910390fd5b6105cd81610774565b50565b6105d861076c565b73ffffffffffffffffffffffffffffffffffffffff166105f66101a9565b73ffffffffffffffffffffffffffffffffffffffff161461064c576040517f08c379a000000000000000000000000000000000000000000000000000000000815260040161064390610ad5565b60405180910390fd5b8173ffffffffffffffffffffffffffffffffffffffff1663095ea7b333836040518363ffffffff1660e01b8152600401610687929190610a8c565b602060405180830381600087803b1580156106a157600080fd5b505af11580156106b5573d6000803e3d6000fd5b505050506040513d601f19601f820116820180604052508101906106d991906109a0565b508173ffffffffffffffffffffffffffffffffffffffff1663a9059cbb33836040518363ffffffff1660e01b8152600401610715929190610a8c565b602060405180830381600087803b15801561072f57600080fd5b505af1158015610743573d6000803e3d6000fd5b505050506040513d601f19601f8201168201806040525081019061076791906109a0565b505050565b600033905090565b60008060009054906101000a900473ffffffffffffffffffffffffffffffffffffffff169050816000806101000a81548173ffffffffffffffffffffffffffffffffffffffff021916908373ffffffffffffffffffffffffffffffffffffffff1602179055508173ffffffffffffffffffffffffffffffffffffffff168173ffffffffffffffffffffffffffffffffffffffff167f8be0079c531659141344cd1fd0a4f28419497f9722a3daafe3b4186f6b6457e060405160405180910390a35050565b600061084b61084684610b1a565b610af5565b9050808382526020820190508285602086028201111561086e5761086d610c45565b5b60005b8581101561089e57816108848882610915565b845260208401935060208301925050600181019050610871565b5050509392505050565b6000813590506108b781610cdd565b92915050565b600082601f8301126108d2576108d1610c40565b5b81356108e2848260208601610838565b91505092915050565b6000815190506108fa81610cf4565b92915050565b60008135905061090f81610d0b565b92915050565b60008135905061092481610d22565b92915050565b6000602082840312156109405761093f610c4f565b5b600061094e848285016108a8565b91505092915050565b60006020828403121561096d5761096c610c4f565b5b600082013567ffffffffffffffff81111561098b5761098a610c4a565b5b610997848285016108bd565b91505092915050565b6000602082840312156109b6576109b5610c4f565b5b60006109c4848285016108eb565b91505092915050565b600080604083850312156109e4576109e3610c4f565b5b60006109f285828601610900565b9250506020610a0385828601610915565b9150509250929050565b610a1681610b57565b82525050565b6000610a29602683610b46565b9150610a3482610c65565b604082019050919050565b6000610a4c602083610b46565b9150610a5782610cb4565b602082019050919050565b610a6b81610ba7565b82525050565b6000602082019050610a866000830184610a0d565b92915050565b6000604082019050610aa16000830185610a0d565b610aae6020830184610a62565b9392505050565b60006020820190508181036000830152610ace81610a1c565b9050919050565b60006020820190508181036000830152610aee81610a3f565b9050919050565b6000610aff610b10565b9050610b0b8282610bb1565b919050565b6000604051905090565b600067ffffffffffffffff821115610b3557610b34610c11565b5b602082029050602081019050919050565b600082825260208201905092915050565b6000610b6282610b87565b9050919050565b60008115159050919050565b6000610b8082610b57565b9050919050565b600073ffffffffffffffffffffffffffffffffffffffff82169050919050565b6000819050919050565b610bba82610c54565b810181811067ffffffffffffffff82111715610bd957610bd8610c11565b5b80604052505050565b7f4e487b7100000000000000000000000000000000000000000000000000000000600052603260045260246000fd5b7f4e487b7100000000000000000000000000000000000000000000000000000000600052604160045260246000fd5b600080fd5b600080fd5b600080fd5b600080fd5b6000601f19601f8301169050919050565b7f4f776e61626c653a206e6577206f776e657220697320746865207a65726f206160008201527f6464726573730000000000000000000000000000000000000000000000000000602082015250565b7f4f776e61626c653a2063616c6c6572206973206e6f7420746865206f776e6572600082015250565b610ce681610b57565b8114610cf157600080fd5b50565b610cfd81610b69565b8114610d0857600080fd5b50565b610d1481610b75565b8114610d1f57600080fd5b50565b610d2b81610ba7565b8114610d3657600080fd5b5056fea264697066735822122041b8f07b2ff88af0eab234a84ee54a5a86507ab7bed4d501ab95103dd9b5495664736f6c63430008060033",
  "immutableReferences": {},
  "source": "// SPDX-License-Identifier: MIT\r\npragma solidity ^0.8.0;\r\n\r\n// @dev what does address(this) contract do?\r\n//  - It should be able to deposit and withdraw tokens from Idle\r\n//  - It should be able to balance the correct ratio - stored in the mapping\r\n//  - It should allow the funds handler contract to withdraw and deposit tokens\r\n//  - It should be able to show the correct balance for each token, with interest, and without, as \r\n//    well as the earned interest\r\n//  - It should allow the funds handler to update the mapping, so it withdraws everything it can, and \r\n//    deposits the correct amount according to the new ratio\r\n\r\n\r\n// SO FAR:\r\n//  - The initial code is there but is not tested\r\n//  - There is no swapping mechanism\r\n//  - How can we trigger the rebalance every X blocks?\r\n\r\n\r\n\r\nimport './interfaces/IIdleToken.sol';\r\nimport './interfaces/IERC20.sol';\r\nimport \"@openzeppelin/contracts/access/Ownable.sol\";\r\n\r\n\r\ncontract IdleConnector is Ownable{\r\n\r\n    uint256 totalBalance;\r\n    // @dev define wethereum token addresses\r\n    address daiAddresss = 0x6B175474E89094C44Da98b954EedeAC495271d0F;\r\n    address wethAddress = 0xC02aaA39b223FE8D0A0e5C4F27eAD9083C756Cc2;\r\n    address usdcAddress = 0xA0b86991c6218b36c1d19D4a2e9Eb0cE3606eB48;\r\n    address usdtAddress = 0xdAC17F958D2ee523a2206206994597C13D831ec7;\r\n    address wbtcAddress = 0x2260FAC5E5542a773Aa44fBCfeDf7C193bc2C599;\r\n    // @dev erc20 token instances\r\n    IERC20 dai = IERC20(daiAddresss);\r\n    IERC20 weth = IERC20(wethAddress);\r\n    IERC20 usdc = IERC20(usdcAddress);\r\n    IERC20 usdt = IERC20(usdtAddress);\r\n    IERC20 wbtc = IERC20(wbtcAddress);\r\n    // @dev put all tokens in an array\r\n    IERC20[] tokens = [dai, weth, usdc, usdt, wbtc];\r\n    // @dev define idle connector addresses\r\n    address daiConnectorAddress;\r\n    address wethConnectorAddress;\r\n    address usdcConnectorAddress;\r\n    address usdtConnectorAddress;\r\n    address wbtcConnectorAddress;\r\n    // @dev put all addreses in an array\r\n    address[] connectorAddresses = [daiConnectorAddress, wethConnectorAddress, usdcConnectorAddress, usdtConnectorAddress, wbtcConnectorAddress];\r\n\r\n    // @dev the mapping of addressees to their ratio\r\n    mapping(address => uint256) ratios;\r\n    // @dev the mapping of addresses to the amount of tokens they have\r\n    mapping(address => uint256) rawBalances;\r\n    // @dev mapping of idletoken balances\r\n    mapping(address => uint256) idleBalances;\r\n    // @dev the mapping of addresses to the amount of interest they have\r\n    mapping(address => uint256) interest;\r\n\r\n\r\n    // @dev constructor\r\n    constructor(uint256 [] memory inital) {\r\n        // @dev set initial ratio for connector addresses\r\n        ratios[daiConnectorAddress] = inital[0];\r\n        ratios[wethConnectorAddress] = inital[1];\r\n        ratios[usdcConnectorAddress] = inital[2];\r\n        ratios[usdtConnectorAddress] = inital[3];\r\n        ratios[wbtcConnectorAddress] = inital[4];\r\n        // @dev define funds handler address as owner\r\n        address owner = address(msg.sender);// update later\r\n    }\r\n\r\n    // @dev function that updates the ratio for all connector addresses\r\n    function updateRatio(uint256[] memory newratios) public onlyOwner{\r\n        // @dev set the ratios for all connector addresses\r\n        ratios[daiConnectorAddress] = newratios[0];\r\n        ratios[wethConnectorAddress] = newratios[1];\r\n        ratios[usdcConnectorAddress] = newratios[2];\r\n        ratios[usdtConnectorAddress] = newratios[3];\r\n        ratios[wbtcConnectorAddress] = newratios[4];\r\n    }\r\n\r\n    // @dev function that creates instances of IIdleTokens.sol for each contract address\r\n    IIdleToken idleDAI = IIdleToken(daiConnectorAddress);\r\n    IIdleToken idleWETH = IIdleToken(wethConnectorAddress);\r\n    IIdleToken idleUSDC = IIdleToken(usdcConnectorAddress);\r\n    IIdleToken idleUSDT = IIdleToken(usdtConnectorAddress);\r\n    IIdleToken idleWBTC = IIdleToken(wbtcConnectorAddress);\r\n    // @dev put all idle tokens in an array\r\n    IIdleToken[] idleTokens = [idleDAI, idleWETH, idleUSDC, idleUSDT, idleWBTC];\r\n\r\n    // @dev function that allows deposits into idle(basically mints idle tokens)\r\n    function depositIdle(IERC20 token, IIdleToken _connector, address _connectorAddress, uint256 _tokens) private{\r\n        token.approve(_connectorAddress, _tokens);\r\n        _connector.mintIdleToken(_tokens, true, address(this));//not sure if skip rebalance is needed, also is address(this) okay for referral?\r\n    }\r\n\r\n    // @dev function that allows withdraws from idle(basically converts idle tokens to real tokens)\r\n    function withdrawIdle(IIdleToken _connector, uint256 _idleTokens) private{\r\n        _connector.redeemIdleToken(_idleTokens);\r\n    }\r\n\r\n    // Q: Do we need a function to allow the funds handler to deposit tokens?\r\n    // @dev function that allows the funds handler to deposit tokens\r\n    function deposit() payable public{}\r\n\r\n    // @dev function that allows user to withdraw tokens from address(this) contract\r\n    function withdraw(IERC20 token, uint256 _tokens) public onlyOwner {\r\n        token.approve(msg.sender, _tokens);\r\n        //need logic to check we have enough tokens to withdraw\r\n        // and if we do we withdraw, otherwise we try to see if \r\n        // we have enough in other idle contracts to withdraw\r\n        // if then we don't, we throw an error\r\n        token.transfer(msg.sender, _tokens);\r\n    }\r\n\r\n\r\n    //@dev function that updates the idle balances for all addresses\r\n    function updateIdleBalances() private{\r\n        // @dev set the idle balances for all addresses\r\n        idleBalances[daiConnectorAddress] = idleDAI.balanceOf(address(this));\r\n        idleBalances[wethConnectorAddress] = idleWETH.balanceOf(address(this));\r\n        idleBalances[usdcConnectorAddress] = idleUSDC.balanceOf(address(this));\r\n        idleBalances[usdtConnectorAddress] = idleUSDT.balanceOf(address(this));\r\n        idleBalances[wbtcConnectorAddress] = idleWBTC.balanceOf(address(this));\r\n    }\r\n\r\n    //@dev function that udpdates earned interest for all addresses\r\n    function updateInterest() private{\r\n        // @dev set the interest for all addresses\r\n        interest[daiConnectorAddress] = idleBalances[daiConnectorAddress]*(idleDAI.tokenPriceWithFee(address(this)) - idleDAI.userAvgPrices(address(this)));\r\n        interest[wethConnectorAddress] = idleBalances[wethConnectorAddress]*(idleWETH.tokenPriceWithFee(address(this)) - idleWETH.userAvgPrices(address(this)));\r\n        interest[usdcConnectorAddress] = idleBalances[usdcConnectorAddress]*(idleUSDC.tokenPriceWithFee(address(this)) - idleUSDC.userAvgPrices(address(this)));\r\n        interest[usdtConnectorAddress] = idleBalances[usdtConnectorAddress]*(idleUSDT.tokenPriceWithFee(address(this)) - idleUSDT.userAvgPrices(address(this)));\r\n        interest[wbtcConnectorAddress] = idleBalances[wbtcConnectorAddress]*(idleWBTC.tokenPriceWithFee(address(this)) - idleWBTC.userAvgPrices(address(this)));\r\n    }\r\n    //@dev function that updates raw balances for all addresses\r\n    function updateRawBalances() private{\r\n        // @dev set the raw balances for all addresses\r\n        rawBalances[daiConnectorAddress] = idleBalances[daiConnectorAddress]*idleDAI.tokenPriceWithFee(address(this));\r\n        rawBalances[wethConnectorAddress] = idleBalances[wethConnectorAddress]*idleWETH.tokenPriceWithFee(address(this));\r\n        rawBalances[usdcConnectorAddress] = idleBalances[usdcConnectorAddress]*idleUSDC.tokenPriceWithFee(address(this));\r\n        rawBalances[usdtConnectorAddress] = idleBalances[usdtConnectorAddress]*idleUSDT.tokenPriceWithFee(address(this));\r\n        rawBalances[wbtcConnectorAddress] = idleBalances[wbtcConnectorAddress]*idleWBTC.tokenPriceWithFee(address(this));\r\n        //@dev define total balance as sum of raw balances\r\n        totalBalance = rawBalances[daiConnectorAddress] + rawBalances[wethConnectorAddress] + rawBalances[usdcConnectorAddress] + rawBalances[usdtConnectorAddress] + rawBalances[wbtcConnectorAddress];\r\n    }\r\n\r\n    //@dev helper function ratio matcher\r\n    function ratioMatcher(address _connectorAddress) private returns (uint256){\r\n        if (rawBalances[_connectorAddress]!=ratios[_connectorAddress]*totalBalance) {\r\n            // @dev if the ratio is not the same, then we need to rebalance\r\n            // @dev calculate the difference between the raw balance and the ratio*total balance\r\n            uint256 difference = rawBalances[_connectorAddress] - (ratios[_connectorAddress]*totalBalance);\r\n            // @dev check if difference is positive or negative\r\n            return difference;\r\n        }\r\n        else {\r\n            // @dev if the ratio is the same, then we don't need to rebalance\r\n            return 0;\r\n        }\r\n\r\n    }\r\n\r\n\r\n    // @dev function that rebalances the idle tokens to have correct ratios\r\n    function rebalance() private{\r\n        //@dev check each of the addresses to see if their raw balance to total balance ratio is\r\n        // the same as the ratio for that address\r\n        // if not, then we need to rebalance\r\n        \r\n        // @dev differences from ideal ratio\r\n        // mapping(address => uint256) memory diffs;\r\n        // @dev differences from ideal ratio array\r\n        uint256 [] memory  diffs;\r\n        // @dev loop through all the addresses\r\n        for (uint256 i = 0; i < connectorAddresses.length; i++) {\r\n            diffs[i] = ratioMatcher(connectorAddresses[i]);\r\n        }\r\n\r\n\r\n\r\n        // @dev check the mapping for each address to see if the difference is positive or negative\r\n        // loop through connecter addresses\r\n        //first withdraw excess tokens from idle tokens\r\n        for(uint i =0 ; i<connectorAddresses.length; i++){\r\n            // @dev if the difference is positive, then we need to rebalance\r\n            if(diffs[i] > 0){\r\n                withdrawIdle(idleTokens[i], diffs[i]);\r\n            }\r\n        }\r\n        //then deposit tokens to idle tokens\r\n        for(uint i =0 ; i<connectorAddresses.length; i++){\r\n            // @dev if the difference is negative, then we need to rebalance\r\n            // @dev for now we will just leave it as is and will have to add a mechanism for\r\n            // swapping tokens later\r\n\r\n            if(diffs[i] < 0){\r\n                depositIdle(tokens[i],idleTokens[i], connectorAddresses[i], 0-diffs[i]);\r\n            }\r\n        }\r\n               \r\n    }\r\n\r\n\r\n\r\n\r\n\r\n\r\n} ",
  "sourcePath": "C:/Users/aliza/Documents/StablecoinX/contracts/IdleConnector.sol",
  "compiler": {
    "name": "solc",
    "version": "0.8.6+commit.11564f7e.Emscripten.clang"
  },
  "schemaVersion": "3.4.1",
  "updatedAt": "2021-07-25T02:43:51.842Z",
  "devdoc": {
    "kind": "dev",
    "methods": {
      "owner()": {
        "details": "Returns the address of the current owner."
      },
      "renounceOwnership()": {
        "details": "Leaves the contract without owner. It will not be possible to call `onlyOwner` functions anymore. Can only be called by the current owner. NOTE: Renouncing ownership will leave the contract without an owner, thereby removing any functionality that is only available to the owner."
      },
      "transferOwnership(address)": {
        "details": "Transfers ownership of the contract to a new account (`newOwner`). Can only be called by the current owner."
      }
    },
    "version": 1
  },
  "userdoc": {
    "kind": "user",
    "methods": {},
    "version": 1
  }
}